{"abi":[{"type":"function","name":"clone","inputs":[{"name":"implementation","type":"address","internalType":"address"},{"name":"data","type":"bytes","internalType":"bytes"}],"outputs":[{"name":"","type":"address","internalType":"address"}],"stateMutability":"nonpayable"},{"type":"event","name":"NewClone","inputs":[{"name":"sender","type":"address","indexed":false,"internalType":"address"},{"name":"implementation","type":"address","indexed":false,"internalType":"address"},{"name":"clone","type":"address","indexed":false,"internalType":"address"}],"anonymous":false},{"type":"error","name":"ERC1167FailedCreateClone","inputs":[]},{"type":"error","name":"InitializationFailed","inputs":[]},{"type":"error","name":"ZeroImplementationCodeSize","inputs":[]}],"bytecode":{"object":"0x608060405234801561001057600080fd5b5061031e806100206000396000f3fe608060405234801561001057600080fd5b506004361061002b5760003560e01c80630fbe133c14610030575b600080fd5b61004361003e36600461020f565b61005f565b6040516001600160a01b03909116815260200160405180910390f35b6000836001600160a01b03163b60000361008c57604051637a19141960e11b815260040160405180910390fd5b60006100978561019d565b604080513381526001600160a01b03888116602083015283168183015290519192507f274b5f356634f32a865af65bdc3d8205939d9413d75e1f367652e4f3b24d0c3a919081900360600190a160405163439fab9160e01b81527fe0e57eda3f08f2a93bbe980d3df7f9c315eac41181f58b865a13d917fe769fc3906001600160a01b0383169063439fab919061013490889088906004016102a0565b6020604051808303816000875af1158015610153573d6000803e3d6000fd5b505050506040513d601f19601f8201168201806040525081019061017791906102cf565b1461019557604051630337323560e31b815260040160405180910390fd5b949350505050565b6000763d602d80600a3d3981f3363d3d373d3d3d363d730000008260601b60e81c176000526e5af43d82803e903d91602b57fd5bf38260781b17602052603760096000f090506001600160a01b03811661020a576040516330be1a3d60e21b815260040160405180910390fd5b919050565b60008060006040848603121561022457600080fd5b83356001600160a01b038116811461023b57600080fd5b9250602084013567ffffffffffffffff8082111561025857600080fd5b818601915086601f83011261026c57600080fd5b81358181111561027b57600080fd5b87602082850101111561028d57600080fd5b6020830194508093505050509250925092565b60208152816020820152818360408301376000818301604090810191909152601f909201601f19160101919050565b6000602082840312156102e157600080fd5b505191905056fea2646970667358221220ccf685a5065a070233da9fcf818351b225fa8d5215bff361ccb588e9d86a30ef64736f6c63430008170033","linkReferences":{}},"methodIdentifiers":{"clone(address,bytes)":"0fbe133c"},"id":15}