{
  "abi": [
    {
      "inputs": [
        {
          "internalType": "uint256",
          "name": "flowMinOutputs",
          "type": "uint256"
        }
      ],
      "name": "BadMinStackLength",
      "type": "error"
    },
    {
      "inputs": [],
      "name": "InitializeSignatureFn",
      "type": "error"
    },
    {
      "inputs": [],
      "name": "InsufficientFlowOutputs",
      "type": "error"
    },
    {
      "inputs": [
        {
          "internalType": "uint256",
          "name": "i",
          "type": "uint256"
        }
      ],
      "name": "InvalidSignature",
      "type": "error"
    },
    {
      "inputs": [
        {
          "internalType": "Sentinel",
          "name": "sentinel",
          "type": "uint256"
        }
      ],
      "name": "MissingSentinel",
      "type": "error"
    },
    {
      "inputs": [
        {
          "internalType": "bytes32",
          "name": "unregisteredHash",
          "type": "bytes32"
        }
      ],
      "name": "UnregisteredFlow",
      "type": "error"
    },
    {
      "inputs": [],
      "name": "UnsupportedERC1155Flow",
      "type": "error"
    },
    {
      "inputs": [],
      "name": "UnsupportedERC20Flow",
      "type": "error"
    },
    {
      "inputs": [],
      "name": "UnsupportedERC721Flow",
      "type": "error"
    },
    {
      "inputs": [],
      "name": "UnsupportedFlowInputs",
      "type": "error"
    },
    {
      "anonymous": false,
      "inputs": [
        {
          "indexed": false,
          "internalType": "address",
          "name": "sender",
          "type": "address"
        },
        {
          "indexed": false,
          "internalType": "uint256[][]",
          "name": "context",
          "type": "uint256[][]"
        }
      ],
      "name": "Context",
      "type": "event"
    },
    {
      "anonymous": false,
      "inputs": [
        {
          "indexed": false,
          "internalType": "address",
          "name": "sender",
          "type": "address"
        },
        {
          "components": [
            {
              "internalType": "contract IInterpreterV2",
              "name": "interpreter",
              "type": "address"
            },
            {
              "internalType": "contract IInterpreterStoreV2",
              "name": "store",
              "type": "address"
            },
            {
              "internalType": "address",
              "name": "expression",
              "type": "address"
            }
          ],
          "indexed": false,
          "internalType": "struct EvaluableV2",
          "name": "evaluable",
          "type": "tuple"
        }
      ],
      "name": "FlowInitialized",
      "type": "event"
    },
    {
      "anonymous": false,
      "inputs": [
        {
          "indexed": false,
          "internalType": "address",
          "name": "sender",
          "type": "address"
        },
        {
          "components": [
            {
              "internalType": "contract IExpressionDeployerV3",
              "name": "deployer",
              "type": "address"
            },
            {
              "internalType": "bytes",
              "name": "bytecode",
              "type": "bytes"
            },
            {
              "internalType": "uint256[]",
              "name": "constants",
              "type": "uint256[]"
            }
          ],
          "indexed": false,
          "internalType": "struct EvaluableConfigV3[]",
          "name": "config",
          "type": "tuple[]"
        }
      ],
      "name": "Initialize",
      "type": "event"
    },
    {
      "anonymous": false,
      "inputs": [
        {
          "indexed": false,
          "internalType": "uint8",
          "name": "version",
          "type": "uint8"
        }
      ],
      "name": "Initialized",
      "type": "event"
    },
    {
      "inputs": [
        {
          "components": [
            {
              "internalType": "contract IInterpreterV2",
              "name": "interpreter",
              "type": "address"
            },
            {
              "internalType": "contract IInterpreterStoreV2",
              "name": "store",
              "type": "address"
            },
            {
              "internalType": "address",
              "name": "expression",
              "type": "address"
            }
          ],
          "internalType": "struct EvaluableV2",
          "name": "evaluable",
          "type": "tuple"
        },
        {
          "internalType": "uint256[]",
          "name": "callerContext",
          "type": "uint256[]"
        },
        {
          "components": [
            {
              "internalType": "address",
              "name": "signer",
              "type": "address"
            },
            {
              "internalType": "uint256[]",
              "name": "context",
              "type": "uint256[]"
            },
            {
              "internalType": "bytes",
              "name": "signature",
              "type": "bytes"
            }
          ],
          "internalType": "struct SignedContextV1[]",
          "name": "signedContexts",
          "type": "tuple[]"
        }
      ],
      "name": "flow",
      "outputs": [
        {
          "components": [
            {
              "components": [
                {
                  "internalType": "address",
                  "name": "token",
                  "type": "address"
                },
                {
                  "internalType": "address",
                  "name": "from",
                  "type": "address"
                },
                {
                  "internalType": "address",
                  "name": "to",
                  "type": "address"
                },
                {
                  "internalType": "uint256",
                  "name": "amount",
                  "type": "uint256"
                }
              ],
              "internalType": "struct ERC20Transfer[]",
              "name": "erc20",
              "type": "tuple[]"
            },
            {
              "components": [
                {
                  "internalType": "address",
                  "name": "token",
                  "type": "address"
                },
                {
                  "internalType": "address",
                  "name": "from",
                  "type": "address"
                },
                {
                  "internalType": "address",
                  "name": "to",
                  "type": "address"
                },
                {
                  "internalType": "uint256",
                  "name": "id",
                  "type": "uint256"
                }
              ],
              "internalType": "struct ERC721Transfer[]",
              "name": "erc721",
              "type": "tuple[]"
            },
            {
              "components": [
                {
                  "internalType": "address",
                  "name": "token",
                  "type": "address"
                },
                {
                  "internalType": "address",
                  "name": "from",
                  "type": "address"
                },
                {
                  "internalType": "address",
                  "name": "to",
                  "type": "address"
                },
                {
                  "internalType": "uint256",
                  "name": "id",
                  "type": "uint256"
                },
                {
                  "internalType": "uint256",
                  "name": "amount",
                  "type": "uint256"
                }
              ],
              "internalType": "struct ERC1155Transfer[]",
              "name": "erc1155",
              "type": "tuple[]"
            }
          ],
          "internalType": "struct FlowTransferV1",
          "name": "",
          "type": "tuple"
        }
      ],
      "stateMutability": "nonpayable",
      "type": "function"
    },
    {
      "inputs": [
        {
          "components": [
            {
              "internalType": "contract IExpressionDeployerV3",
              "name": "deployer",
              "type": "address"
            },
            {
              "internalType": "bytes",
              "name": "bytecode",
              "type": "bytes"
            },
            {
              "internalType": "uint256[]",
              "name": "constants",
              "type": "uint256[]"
            }
          ],
          "internalType": "struct EvaluableConfigV3[]",
          "name": "",
          "type": "tuple[]"
        }
      ],
      "name": "initialize",
      "outputs": [],
      "stateMutability": "pure",
      "type": "function"
    },
    {
      "inputs": [
        {
          "internalType": "bytes",
          "name": "data",
          "type": "bytes"
        }
      ],
      "name": "initialize",
      "outputs": [
        {
          "internalType": "bytes32",
          "name": "",
          "type": "bytes32"
        }
      ],
      "stateMutability": "nonpayable",
      "type": "function"
    },
    {
      "inputs": [
        {
          "internalType": "bytes[]",
          "name": "data",
          "type": "bytes[]"
        }
      ],
      "name": "multicall",
      "outputs": [
        {
          "internalType": "bytes[]",
          "name": "results",
          "type": "bytes[]"
        }
      ],
      "stateMutability": "nonpayable",
      "type": "function"
    },
    {
      "inputs": [
        {
          "internalType": "address",
          "name": "",
          "type": "address"
        },
        {
          "internalType": "address",
          "name": "",
          "type": "address"
        },
        {
          "internalType": "uint256[]",
          "name": "",
          "type": "uint256[]"
        },
        {
          "internalType": "uint256[]",
          "name": "",
          "type": "uint256[]"
        },
        {
          "internalType": "bytes",
          "name": "",
          "type": "bytes"
        }
      ],
      "name": "onERC1155BatchReceived",
      "outputs": [
        {
          "internalType": "bytes4",
          "name": "",
          "type": "bytes4"
        }
      ],
      "stateMutability": "nonpayable",
      "type": "function"
    },
    {
      "inputs": [
        {
          "internalType": "address",
          "name": "",
          "type": "address"
        },
        {
          "internalType": "address",
          "name": "",
          "type": "address"
        },
        {
          "internalType": "uint256",
          "name": "",
          "type": "uint256"
        },
        {
          "internalType": "uint256",
          "name": "",
          "type": "uint256"
        },
        {
          "internalType": "bytes",
          "name": "",
          "type": "bytes"
        }
      ],
      "name": "onERC1155Received",
      "outputs": [
        {
          "internalType": "bytes4",
          "name": "",
          "type": "bytes4"
        }
      ],
      "stateMutability": "nonpayable",
      "type": "function"
    },
    {
      "inputs": [
        {
          "internalType": "address",
          "name": "",
          "type": "address"
        },
        {
          "internalType": "address",
          "name": "",
          "type": "address"
        },
        {
          "internalType": "uint256",
          "name": "",
          "type": "uint256"
        },
        {
          "internalType": "bytes",
          "name": "",
          "type": "bytes"
        }
      ],
      "name": "onERC721Received",
      "outputs": [
        {
          "internalType": "bytes4",
          "name": "",
          "type": "bytes4"
        }
      ],
      "stateMutability": "nonpayable",
      "type": "function"
    },
    {
      "inputs": [
        {
          "internalType": "uint256[]",
          "name": "stack",
          "type": "uint256[]"
        }
      ],
      "name": "stackToFlow",
      "outputs": [
        {
          "components": [
            {
              "components": [
                {
                  "internalType": "address",
                  "name": "token",
                  "type": "address"
                },
                {
                  "internalType": "address",
                  "name": "from",
                  "type": "address"
                },
                {
                  "internalType": "address",
                  "name": "to",
                  "type": "address"
                },
                {
                  "internalType": "uint256",
                  "name": "amount",
                  "type": "uint256"
                }
              ],
              "internalType": "struct ERC20Transfer[]",
              "name": "erc20",
              "type": "tuple[]"
            },
            {
              "components": [
                {
                  "internalType": "address",
                  "name": "token",
                  "type": "address"
                },
                {
                  "internalType": "address",
                  "name": "from",
                  "type": "address"
                },
                {
                  "internalType": "address",
                  "name": "to",
                  "type": "address"
                },
                {
                  "internalType": "uint256",
                  "name": "id",
                  "type": "uint256"
                }
              ],
              "internalType": "struct ERC721Transfer[]",
              "name": "erc721",
              "type": "tuple[]"
            },
            {
              "components": [
                {
                  "internalType": "address",
                  "name": "token",
                  "type": "address"
                },
                {
                  "internalType": "address",
                  "name": "from",
                  "type": "address"
                },
                {
                  "internalType": "address",
                  "name": "to",
                  "type": "address"
                },
                {
                  "internalType": "uint256",
                  "name": "id",
                  "type": "uint256"
                },
                {
                  "internalType": "uint256",
                  "name": "amount",
                  "type": "uint256"
                }
              ],
              "internalType": "struct ERC1155Transfer[]",
              "name": "erc1155",
              "type": "tuple[]"
            }
          ],
          "internalType": "struct FlowTransferV1",
          "name": "",
          "type": "tuple"
        }
      ],
      "stateMutability": "pure",
      "type": "function"
    },
    {
      "inputs": [
        {
          "internalType": "bytes4",
          "name": "interfaceId",
          "type": "bytes4"
        }
      ],
      "name": "supportsInterface",
      "outputs": [
        {
          "internalType": "bool",
          "name": "",
          "type": "bool"
        }
      ],
      "stateMutability": "view",
      "type": "function"
    }
  ],
  "bytecode": {
    "object": "0x60806040523480156200001157600080fd5b506200001c62000022565b620000e3565b600054610100900460ff16156200008f5760405162461bcd60e51b815260206004820152602760248201527f496e697469616c697a61626c653a20636f6e747261637420697320696e697469604482015266616c697a696e6760c81b606482015260840160405180910390fd5b60005460ff90811614620000e1576000805460ff191660ff9081179091556040519081527f7f26b83ff96e1f2b6a682f133852f6798a09c465da95921460cefb38474024989060200160405180910390a15b565b61306f80620000f36000396000f3fe608060405234801561001057600080fd5b50600436106100a35760003560e01c806343b84e5311610076578063bc197c811161005b578063bc197c811461018a578063f23a6e61146101c2578063f83d765a146101fa57600080fd5b806343b84e531461014a578063ac9650d81461016a57600080fd5b806301ffc9a7146100a8578063150b7a02146100d0578063204368cc14610114578063439fab9114610129575b600080fd5b6100bb6100b6366004612099565b61020d565b60405190151581526020015b60405180910390f35b6100e36100de366004612243565b6102a6565b6040517fffffffff0000000000000000000000000000000000000000000000000000000090911681526020016100c7565b610127610122366004612339565b6102d0565b005b61013c610137366004612476565b610302565b6040519081526020016100c7565b61015d6101583660046124e8565b61050e565b6040516100c7919061259f565b61017d6101783660046126fd565b610548565b6040516100c791906127ce565b6100e361019836600461284e565b7fbc197c810000000000000000000000000000000000000000000000000000000095945050505050565b6100e36101d03660046128fc565b7ff23a6e610000000000000000000000000000000000000000000000000000000095945050505050565b61015d610208366004612965565b610636565b60007fffffffff0000000000000000000000000000000000000000000000000000000082167f4e2312e00000000000000000000000000000000000000000000000000000000014806102a057507f01ffc9a7000000000000000000000000000000000000000000000000000000007fffffffff000000000000000000000000000000000000000000000000000000008316145b92915050565b7f150b7a02000000000000000000000000000000000000000000000000000000005b949350505050565b6040517faf1fbb2100000000000000000000000000000000000000000000000000000000815260040160405180910390fd5b60008054610100900460ff16158080156103235750600054600160ff909116105b8061033d5750303b15801561033d575060005460ff166001145b6103ce576040517f08c379a000000000000000000000000000000000000000000000000000000000815260206004820152602e60248201527f496e697469616c697a61626c653a20636f6e747261637420697320616c72656160448201527f647920696e697469616c697a656400000000000000000000000000000000000060648201526084015b60405180910390fd5b600080547fffffffffffffffffffffffffffffffffffffffffffffffffffffffffffffff00166001179055801561042c57600080547fffffffffffffffffffffffffffffffffffffffffffffffffffffffffffff00ff166101001790555b600061043a84860186612339565b90507f484bca5e4998b7b55ce2c5bc489085d787e96b533bade3f61c348e0c5d4acefe338260405161046d929190612b4b565b60405180910390a16104808160036106ab565b7fe0e57eda3f08f2a93bbe980d3df7f9c315eac41181f58b865a13d917fe769fc3925050801561050757600080547fffffffffffffffffffffffffffffffffffffffffffffffffffffffffffff00ff169055604051600181527f7f26b83ff96e1f2b6a682f133852f6798a09c465da95921460cefb38474024989060200160405180910390a15b5092915050565b61053260405180606001604052806060815260200160608152602001606081525090565b6102a06020830183516020908102850101610a5d565b60608167ffffffffffffffff81111561056357610563612100565b60405190808252806020026020018201604052801561059657816020015b60608152602001906001900390816105815790505b50905060005b8281101561050757610606308585848181106105ba576105ba612c19565b90506020028101906105cc9190612c48565b8080601f016020809104026020016040519081016040528093929190818152602001838380828437600092019190915250610be492505050565b82828151811061061857610618612c19565b6020026020010181905250808061062e90612cad565b91505061059c565b61065a60405180606001604052806060815260200160608152602001606081525090565b610662610c09565b6000806000610672878787610c7c565b92509250925060006106848484610a5d565b905061069581896020015184610e50565b93505050506106a4600160fb55565b9392505050565b600054610100900460ff16610742576040517f08c379a000000000000000000000000000000000000000000000000000000000815260206004820152602b60248201527f496e697469616c697a61626c653a20636f6e7472616374206973206e6f74206960448201527f6e697469616c697a696e6700000000000000000000000000000000000000000060648201526084016103c5565b61074a610f06565b610752610f06565b61075a610f06565b610762610f9f565b60038110156107a0576040517fb0682cf3000000000000000000000000000000000000000000000000000000008152600481018290526024016103c5565b6107da6040518060600160405280600073ffffffffffffffffffffffffffffffffffffffff16815260200160608152602001606081525090565b60408051606081018252600080825260208201819052918101829052905b8451811015610a565784818151811061081357610813612c19565b60200260200101519250600080600080866000015173ffffffffffffffffffffffffffffffffffffffff1663b7f14403886020015189604001516040518363ffffffff1660e01b815260040161086a929190612d0c565b6000604051808303816000875af1158015610889573d6000803e3d6000fd5b505050506040513d6000823e601f3d9081017fffffffffffffffffffffffffffffffffffffffffffffffffffffffffffffffe01682016040526108cf9190810190612d3a565b602081015193975091955093509150600081901a9060011a811561091f576040517f8d6add8c00000000000000000000000000000000000000000000000000000000815260040160405180910390fd5b89811015610959576040517f20ee0c0300000000000000000000000000000000000000000000000000000000815260040160405180910390fd5b505060405180606001604052808573ffffffffffffffffffffffffffffffffffffffff1681526020018473ffffffffffffffffffffffffffffffffffffffff1681526020018373ffffffffffffffffffffffffffffffffffffffff168152509550600161012d60006109cc896060902090565b81526020808201929092526040908101600020929092558151338152885173ffffffffffffffffffffffffffffffffffffffff9081168284015291890151821681840152918801511660608201527fed510090abe2a95b97a621e3d2c947ea3c26eced1c87470474d17e353dcc53389060800160405180910390a1505050508060010190506107f8565b5050505050565b610a8160405180606001604052806060815260200160608152602001606081525090565b60408051808201909152601281527f5241494e5f464c4f575f53454e54494e454c0000000000000000000000000000602090910152606080806000610ae987877ffea74d0c9bf4a3c28f0dd0674db22a3d7f8bf259c56af19f4ac1e735b156974f600461103e565b60408051808201909152601281527f5241494e5f464c4f575f53454e54494e454c00000000000000000000000000006020909101529096509350839050610b5387877ffea74d0c9bf4a3c28f0dd0674db22a3d7f8bf259c56af19f4ac1e735b156974f600461103e565b60408051808201909152601281527f5241494e5f464c4f575f53454e54494e454c00000000000000000000000000006020909101529096509250829050610bbd87877ffea74d0c9bf4a3c28f0dd0674db22a3d7f8bf259c56af19f4ac1e735b156974f600561103e565b60408051606081018252968752602087019590955293850193909352509195945050505050565b60606106a48383604051806060016040528060278152602001613048602791396110ea565b600260fb5403610c75576040517f08c379a000000000000000000000000000000000000000000000000000000000815260206004820152601f60248201527f5265656e7472616e637947756172643a207265656e7472616e742063616c6c0060448201526064016103c5565b600260fb55565b60008060606000610ca8610ca28760408051600181526020810192909252818101905290565b8661116f565b90507f17a5c0f3785132a57703932032f6863e7920434150aa1dc940e567b440fdce1f3382604051610cdb929190612e41565b60405180910390a160608720600081815261012d6020526040902054610d30576040517f7a80ba4d000000000000000000000000000000000000000000000000000000008152600481018290526024016103c5565b50600080886000015173ffffffffffffffffffffffffffffffffffffffff16636046c5f98a60200151610d6d30600061149f90919063ffffffff16565b60408d015160201b77ffffffffffffffffffffffffffffffffffffffff000000001661ffff17604080516000808252602082019092528991506040518663ffffffff1660e01b8152600401610dc6959493929190612e70565b600060405180830381865afa158015610de3573d6000803e3d6000fd5b505050506040513d6000823e601f3d9081017fffffffffffffffffffffffffffffffffffffffffffffffffffffffffffffffe0168201604052610e299190810190612f18565b91509150610e378260200190565b8251909a60209182029093010198509650945050505050565b805115610edf576040517f946aadc600000000000000000000000000000000000000000000000000000000815273ffffffffffffffffffffffffffffffffffffffff83169063946aadc690610eac906000908590600401612f7c565b600060405180830381600087803b158015610ec657600080fd5b505af1158015610eda573d6000803e3d6000fd5b505050505b610ee8836114ae565b610ef183611607565b610efa83611797565b505050565b600160fb55565b600054610100900460ff16610f9d576040517f08c379a000000000000000000000000000000000000000000000000000000000815260206004820152602b60248201527f496e697469616c697a61626c653a20636f6e7472616374206973206e6f74206960448201527f6e697469616c697a696e6700000000000000000000000000000000000000000060648201526084016103c5565b565b600054610100900460ff16611036576040517f08c379a000000000000000000000000000000000000000000000000000000000815260206004820152602b60248201527f496e697469616c697a61626c653a20636f6e7472616374206973206e6f74206960448201527f6e697469616c697a696e6700000000000000000000000000000000000000000060648201526084016103c5565b610f9d611947565b60008060208302855b8781111561106b57602081038681510361106257935061106b565b50819003611047565b50826000036110a9576040517fd457746f000000000000000000000000000000000000000000000000000000008152600481018690526024016103c5565b604051915060208201602084015b878110156110cf5780825260209091019082016110b7565b50806040526001602084830304038352505094509492505050565b60606000808573ffffffffffffffffffffffffffffffffffffffff16856040516111149190612f95565b600060405180830381855af49150503d806000811461114f576040519150601f19603f3d011682016040523d82523d6000602084013e611154565b606091505b5091509150611165868383876119de565b9695505050505050565b60606000825167ffffffffffffffff81111561118d5761118d612100565b6040519080825280602002602001820160405280156111b6578160200160208202803683370190505b5090506000808451116111ca5760006111d0565b83516001015b855160010101905060008167ffffffffffffffff8111156111f3576111f3612100565b60405190808252806020026020018201604052801561122657816020015b60608152602001906001900390816112115790505b509050600061124b604080516002815233602082015230818301526060810190915290565b82828151811061125d5761125d612c19565b602002602001018190525060005b87518110156112bb57818060010192505087818151811061128e5761128e612c19565b60200260200101518383815181106112a8576112a8612c19565b602090810291909101015260010161126b565b50855115611495578080600101915050838282815181106112de576112de612c19565b602002602001018190525060005b8651811015611493576113bd87828151811061130a5761130a612c19565b60200260200101516000015161139a6113478a858151811061132e5761132e612c19565b6020026020010151602001518051602090810291012090565b6040517f19457468657265756d205369676e6564204d6573736167653a0a3332000000006020820152603c8101829052600090605c01604051602081830303815290604052805190602001209050919050565b8984815181106113ac576113ac612c19565b602002602001015160400151611a7e565b6113f6576040517f52bf9848000000000000000000000000000000000000000000000000000000008152600481018290526024016103c5565b86818151811061140857611408612c19565b60200260200101516000015173ffffffffffffffffffffffffffffffffffffffff1685828151811061143c5761143c612c19565b602002602001018181525050818060010192505086818151811061146257611462612c19565b60200260200101516020015183838151811061148057611480612c19565b60209081029190910101526001016112ec565b505b5095945050505050565b60009182526020526040902090565b6040805160808101825260008082526020820181905291810182905260608101829052905b825151811015610efa5782518051829081106114f1576114f1612c19565b602002602001015191503373ffffffffffffffffffffffffffffffffffffffff16826020015173ffffffffffffffffffffffffffffffffffffffff1603611568576040820151606083015183516115639273ffffffffffffffffffffffffffffffffffffffff90911691339190611c4b565b6115ff565b3073ffffffffffffffffffffffffffffffffffffffff16826020015173ffffffffffffffffffffffffffffffffffffffff16036115cd576040820151606083015183516115639273ffffffffffffffffffffffffffffffffffffffff90911691611d2d565b6040517fa521c60f00000000000000000000000000000000000000000000000000000000815260040160405180910390fd5b6001016114d3565b6040805160808101825260008082526020820181905291810182905260608101829052905b826020015151811015610efa578260200151818151811061164f5761164f612c19565b602002602001015191503373ffffffffffffffffffffffffffffffffffffffff16826020015173ffffffffffffffffffffffffffffffffffffffff16141580156116b35750602082015173ffffffffffffffffffffffffffffffffffffffff163014155b156116ea576040517f3a5befc500000000000000000000000000000000000000000000000000000000815260040160405180910390fd5b81516020830151604080850151606086015191517f42842e0e00000000000000000000000000000000000000000000000000000000815273ffffffffffffffffffffffffffffffffffffffff9384166004820152908316602482015260448101919091529116906342842e0e90606401600060405180830381600087803b15801561177457600080fd5b505af1158015611788573d6000803e3d6000fd5b5050505080600101905061162c565b6040805160a0810182526000808252602082018190529181018290526060810182905260808101829052905b826040015151811015610efa57826040015181815181106117e6576117e6612c19565b602002602001015191503373ffffffffffffffffffffffffffffffffffffffff16826020015173ffffffffffffffffffffffffffffffffffffffff161415801561184a5750602082015173ffffffffffffffffffffffffffffffffffffffff163014155b15611881576040517fc6a91ecc00000000000000000000000000000000000000000000000000000000815260040160405180910390fd5b815160208301516040808501516060860151608087015192517ff242432a00000000000000000000000000000000000000000000000000000000815273ffffffffffffffffffffffffffffffffffffffff948516600482015291841660248301526044820152606481019190915260a06084820152600060a482015291169063f242432a9060c401600060405180830381600087803b15801561192357600080fd5b505af1158015611937573d6000803e3d6000fd5b5050600190920191506117c39050565b600054610100900460ff16610eff576040517f08c379a000000000000000000000000000000000000000000000000000000000815260206004820152602b60248201527f496e697469616c697a61626c653a20636f6e7472616374206973206e6f74206960448201527f6e697469616c697a696e6700000000000000000000000000000000000000000060648201526084016103c5565b60608315611a74578251600003611a6d5773ffffffffffffffffffffffffffffffffffffffff85163b611a6d576040517f08c379a000000000000000000000000000000000000000000000000000000000815260206004820152601d60248201527f416464726573733a2063616c6c20746f206e6f6e2d636f6e747261637400000060448201526064016103c5565b50816102c8565b6102c88383611d83565b6000806000611a8d8585611dc7565b90925090506000816004811115611aa657611aa6612fb1565b148015611ade57508573ffffffffffffffffffffffffffffffffffffffff168273ffffffffffffffffffffffffffffffffffffffff16145b15611aee576001925050506106a4565b6000808773ffffffffffffffffffffffffffffffffffffffff16631626ba7e60e01b8888604051602401611b23929190612fe0565b604080517fffffffffffffffffffffffffffffffffffffffffffffffffffffffffffffffe08184030181529181526020820180517bffffffffffffffffffffffffffffffffffffffffffffffffffffffff167fffffffff00000000000000000000000000000000000000000000000000000000909416939093179092529051611bac9190612f95565b600060405180830381855afa9150503d8060008114611be7576040519150601f19603f3d011682016040523d82523d6000602084013e611bec565b606091505b5091509150818015611bff575080516020145b8015611c3f575080517f1626ba7e0000000000000000000000000000000000000000000000000000000090611c3d9083016020908101908401612ff9565b145b98975050505050505050565b60405173ffffffffffffffffffffffffffffffffffffffff80851660248301528316604482015260648101829052611d279085907f23b872dd00000000000000000000000000000000000000000000000000000000906084015b604080517fffffffffffffffffffffffffffffffffffffffffffffffffffffffffffffffe08184030181529190526020810180517bffffffffffffffffffffffffffffffffffffffffffffffffffffffff167fffffffff0000000000000000000000000000000000000000000000000000000090931692909217909152611e0c565b50505050565b60405173ffffffffffffffffffffffffffffffffffffffff8316602482015260448101829052610efa9084907fa9059cbb0000000000000000000000000000000000000000000000000000000090606401611ca5565b815115611d935781518083602001fd5b806040517f08c379a00000000000000000000000000000000000000000000000000000000081526004016103c59190613012565b6000808251604103611dfd5760208301516040840151606085015160001a611df187828585611f18565b94509450505050611e05565b506000905060025b9250929050565b6000611e6e826040518060400160405280602081526020017f5361666545524332303a206c6f772d6c6576656c2063616c6c206661696c65648152508573ffffffffffffffffffffffffffffffffffffffff166120079092919063ffffffff16565b805190915015610efa5780806020019051810190611e8c9190613025565b610efa576040517f08c379a000000000000000000000000000000000000000000000000000000000815260206004820152602a60248201527f5361666545524332303a204552433230206f7065726174696f6e20646964206e60448201527f6f7420737563636565640000000000000000000000000000000000000000000060648201526084016103c5565b6000807f7fffffffffffffffffffffffffffffff5d576e7357a4501ddfe92f46681b20a0831115611f4f5750600090506003611ffe565b6040805160008082526020820180845289905260ff881692820192909252606081018690526080810185905260019060a0016020604051602081039080840390855afa158015611fa3573d6000803e3d6000fd5b50506040517fffffffffffffffffffffffffffffffffffffffffffffffffffffffffffffffe0015191505073ffffffffffffffffffffffffffffffffffffffff8116611ff757600060019250925050611ffe565b9150600090505b94509492505050565b60606102c88484600085856000808673ffffffffffffffffffffffffffffffffffffffff16858760405161203b9190612f95565b60006040518083038185875af1925050503d8060008114612078576040519150601f19603f3d011682016040523d82523d6000602084013e61207d565b606091505b509150915061208e878383876119de565b979650505050505050565b6000602082840312156120ab57600080fd5b81357fffffffff00000000000000000000000000000000000000000000000000000000811681146106a457600080fd5b73ffffffffffffffffffffffffffffffffffffffff811681146120fd57600080fd5b50565b7f4e487b7100000000000000000000000000000000000000000000000000000000600052604160045260246000fd5b6040516060810167ffffffffffffffff8111828210171561215257612152612100565b60405290565b604051601f82017fffffffffffffffffffffffffffffffffffffffffffffffffffffffffffffffe016810167ffffffffffffffff8111828210171561219f5761219f612100565b604052919050565b600067ffffffffffffffff8211156121c1576121c1612100565b50601f017fffffffffffffffffffffffffffffffffffffffffffffffffffffffffffffffe01660200190565b600082601f8301126121fe57600080fd5b813561221161220c826121a7565b612158565b81815284602083860101111561222657600080fd5b816020850160208301376000918101602001919091529392505050565b6000806000806080858703121561225957600080fd5b8435612264816120db565b93506020850135612274816120db565b925060408501359150606085013567ffffffffffffffff81111561229757600080fd5b6122a3878288016121ed565b91505092959194509250565b600067ffffffffffffffff8211156122c9576122c9612100565b5060051b60200190565b600082601f8301126122e457600080fd5b813560206122f461220c836122af565b82815260059290921b8401810191818101908684111561231357600080fd5b8286015b8481101561232e5780358352918301918301612317565b509695505050505050565b6000602080838503121561234c57600080fd5b823567ffffffffffffffff8082111561236457600080fd5b818501915085601f83011261237857600080fd5b813561238661220c826122af565b81815260059190911b830184019084810190888311156123a557600080fd5b8585015b83811015612469578035858111156123c15760008081fd5b86016060818c037fffffffffffffffffffffffffffffffffffffffffffffffffffffffffffffffe0018113156123f75760008081fd5b6123ff61212f565b8983013561240c816120db565b8152604083810135898111156124225760008081fd5b6124308f8d838801016121ed565b838d0152509183013591888311156124485760008081fd5b6124568e8c858701016122d3565b90820152855250509186019186016123a9565b5098975050505050505050565b6000806020838503121561248957600080fd5b823567ffffffffffffffff808211156124a157600080fd5b818501915085601f8301126124b557600080fd5b8135818111156124c457600080fd5b8660208285010111156124d657600080fd5b60209290920196919550909350505050565b6000602082840312156124fa57600080fd5b813567ffffffffffffffff81111561251157600080fd5b6102c8848285016122d3565b600081518084526020808501945080840160005b83811015612594578151805173ffffffffffffffffffffffffffffffffffffffff9081168952848201518116858a015260408083015190911690890152606080820151908901526080908101519088015260a09096019590820190600101612531565b509495945050505050565b600060208083526080808401855160608487015281815180845260a0880191508583019350600092505b8083101561262d5761261982855173ffffffffffffffffffffffffffffffffffffffff80825116835280602083015116602084015280604083015116604084015250606081015160608301525050565b9285019260019290920191908401906125c9565b50848801517fffffffffffffffffffffffffffffffffffffffffffffffffffffffffffffffe0888303810160408a01528151808452918701945092506000918601905b808310156126d4576126c082865173ffffffffffffffffffffffffffffffffffffffff80825116835280602083015116602084015280604083015116604084015250606081015160608301525050565b938601936001929092019190850190612670565b5060408901519550828882030160608901526126f0818761251d565b9998505050505050505050565b6000806020838503121561271057600080fd5b823567ffffffffffffffff8082111561272857600080fd5b818501915085601f83011261273c57600080fd5b81358181111561274b57600080fd5b8660208260051b85010111156124d657600080fd5b60005b8381101561277b578181015183820152602001612763565b50506000910152565b6000815180845261279c816020860160208601612760565b601f017fffffffffffffffffffffffffffffffffffffffffffffffffffffffffffffffe0169290920160200192915050565b6000602080830181845280855180835260408601915060408160051b870101925083870160005b82811015612841577fffffffffffffffffffffffffffffffffffffffffffffffffffffffffffffffc088860301845261282f858351612784565b945092850192908501906001016127f5565b5092979650505050505050565b600080600080600060a0868803121561286657600080fd5b8535612871816120db565b94506020860135612881816120db565b9350604086013567ffffffffffffffff8082111561289e57600080fd5b6128aa89838a016122d3565b945060608801359150808211156128c057600080fd5b6128cc89838a016122d3565b935060808801359150808211156128e257600080fd5b506128ef888289016121ed565b9150509295509295909350565b600080600080600060a0868803121561291457600080fd5b853561291f816120db565b9450602086013561292f816120db565b93506040860135925060608601359150608086013567ffffffffffffffff81111561295957600080fd5b6128ef888289016121ed565b600080600083850360a081121561297b57600080fd5b606081121561298957600080fd5b5061299261212f565b843561299d816120db565b81526020858101356129ae816120db565b8282015260408601356129c0816120db565b604083015290935060608501359067ffffffffffffffff808311156129e457600080fd5b6129f0888489016122d3565b94506080870135925080831115612a0657600080fd5b828701925087601f840112612a1a57600080fd5b8235612a2861220c826122af565b81815260059190911b8401830190838101908a831115612a4757600080fd5b8486015b83811015612b0a57803585811115612a635760008081fd5b87016060818e037fffffffffffffffffffffffffffffffffffffffffffffffffffffffffffffffe0011215612a985760008081fd5b612aa061212f565b87820135612aad816120db565b8152604082013587811115612ac25760008081fd5b612ad08f8a838601016122d3565b8983015250606082013587811115612ae85760008081fd5b612af68f8a838601016121ed565b604083015250845250918501918501612a4b565b508096505050505050509250925092565b600081518084526020808501945080840160005b8381101561259457815187529582019590820190600101612b2f565b6000604080830173ffffffffffffffffffffffffffffffffffffffff808716855260208381870152828751808552606094508488019150848160051b890101838a0160005b83811015612c08577fffffffffffffffffffffffffffffffffffffffffffffffffffffffffffffffa08b84030185528151878151168452868101518988860152612bdc8a860182612784565b918b0151858303868d0152919050612bf48183612b1b565b968801969450505090850190600101612b90565b50909b9a5050505050505050505050565b7f4e487b7100000000000000000000000000000000000000000000000000000000600052603260045260246000fd5b60008083357fffffffffffffffffffffffffffffffffffffffffffffffffffffffffffffffe1843603018112612c7d57600080fd5b83018035915067ffffffffffffffff821115612c9857600080fd5b602001915036819003821315611e0557600080fd5b60007fffffffffffffffffffffffffffffffffffffffffffffffffffffffffffffffff8203612d05577f4e487b7100000000000000000000000000000000000000000000000000000000600052601160045260246000fd5b5060010190565b604081526000612d1f6040830185612784565b8281036020840152612d318185612b1b565b95945050505050565b60008060008060808587031215612d5057600080fd5b8451612d5b816120db565b6020860151909450612d6c816120db565b6040860151909350612d7d816120db565b606086015190925067ffffffffffffffff811115612d9a57600080fd5b8501601f81018713612dab57600080fd5b8051612db961220c826121a7565b818152886020838501011115612dce57600080fd5b612ddf826020830160208601612760565b9598949750929550505050565b600081518084526020808501808196508360051b8101915082860160005b85811015612e34578284038952612e22848351612b1b565b98850198935090840190600101612e0a565b5091979650505050505050565b73ffffffffffffffffffffffffffffffffffffffff831681526040602082015260006102c86040830184612dec565b73ffffffffffffffffffffffffffffffffffffffff8616815284602082015283604082015260a060608201526000612eab60a0830185612dec565b8281036080840152611c3f8185612b1b565b600082601f830112612ece57600080fd5b81516020612ede61220c836122af565b82815260059290921b84018101918181019086841115612efd57600080fd5b8286015b8481101561232e5780518352918301918301612f01565b60008060408385031215612f2b57600080fd5b825167ffffffffffffffff80821115612f4357600080fd5b612f4f86838701612ebd565b93506020850151915080821115612f6557600080fd5b50612f7285828601612ebd565b9150509250929050565b8281526040602082015260006102c86040830184612b1b565b60008251612fa7818460208701612760565b9190910192915050565b7f4e487b7100000000000000000000000000000000000000000000000000000000600052602160045260246000fd5b8281526040602082015260006102c86040830184612784565b60006020828403121561300b57600080fd5b5051919050565b6020815260006106a46020830184612784565b60006020828403121561303757600080fd5b815180151581146106a457600080fdfe416464726573733a206c6f772d6c6576656c2064656c65676174652063616c6c206661696c6564",
    "linkReferences": {}
  },
  "methodIdentifiers": {
    "flow((address,address,address),uint256[],(address,uint256[],bytes)[])": "f83d765a",
    "initialize((address,bytes,uint256[])[])": "204368cc",
    "initialize(bytes)": "439fab91",
    "multicall(bytes[])": "ac9650d8",
    "onERC1155BatchReceived(address,address,uint256[],uint256[],bytes)": "bc197c81",
    "onERC1155Received(address,address,uint256,uint256,bytes)": "f23a6e61",
    "onERC721Received(address,address,uint256,bytes)": "150b7a02",
    "stackToFlow(uint256[])": "43b84e53",
    "supportsInterface(bytes4)": "01ffc9a7"
  },
  "id": 78
}