{
  "abi": [
    {
      "type": "constructor",
      "inputs": [
        {
          "name": "config",
          "type": "tuple",
          "internalType": "struct RainterpreterExpressionDeployerNPE2ConstructionConfig",
          "components": [
            {
              "name": "interpreter",
              "type": "address",
              "internalType": "address"
            },
            {
              "name": "store",
              "type": "address",
              "internalType": "address"
            },
            {
              "name": "parser",
              "type": "address",
              "internalType": "address"
            },
            {
              "name": "meta",
              "type": "bytes",
              "internalType": "bytes"
            }
          ]
        }
      ],
      "stateMutability": "nonpayable"
    },
    {
      "type": "function",
      "name": "deployExpression2",
      "inputs": [
        {
          "name": "bytecode",
          "type": "bytes",
          "internalType": "bytes"
        },
        {
          "name": "constants",
          "type": "uint256[]",
          "internalType": "uint256[]"
        }
      ],
      "outputs": [
        {
          "name": "",
          "type": "address",
          "internalType": "contract IInterpreterV2"
        },
        {
          "name": "",
          "type": "address",
          "internalType": "contract IInterpreterStoreV2"
        },
        {
          "name": "",
          "type": "address",
          "internalType": "address"
        },
        {
          "name": "",
          "type": "bytes",
          "internalType": "bytes"
        }
      ],
      "stateMutability": "nonpayable"
    },
    {
      "type": "function",
      "name": "expectedConstructionMetaHash",
      "inputs": [],
      "outputs": [
        {
          "name": "",
          "type": "bytes32",
          "internalType": "bytes32"
        }
      ],
      "stateMutability": "pure"
    },
    {
      "type": "function",
      "name": "iInterpreter",
      "inputs": [],
      "outputs": [
        {
          "name": "",
          "type": "address",
          "internalType": "contract IInterpreterV2"
        }
      ],
      "stateMutability": "view"
    },
    {
      "type": "function",
      "name": "iParser",
      "inputs": [],
      "outputs": [
        {
          "name": "",
          "type": "address",
          "internalType": "contract IParserV1"
        }
      ],
      "stateMutability": "view"
    },
    {
      "type": "function",
      "name": "iStore",
      "inputs": [],
      "outputs": [
        {
          "name": "",
          "type": "address",
          "internalType": "contract IInterpreterStoreV2"
        }
      ],
      "stateMutability": "view"
    },
    {
      "type": "function",
      "name": "integrityFunctionPointers",
      "inputs": [],
      "outputs": [
        {
          "name": "",
          "type": "bytes",
          "internalType": "bytes"
        }
      ],
      "stateMutability": "view"
    },
    {
      "type": "function",
      "name": "supportsInterface",
      "inputs": [
        {
          "name": "interfaceId",
          "type": "bytes4",
          "internalType": "bytes4"
        }
      ],
      "outputs": [
        {
          "name": "",
          "type": "bool",
          "internalType": "bool"
        }
      ],
      "stateMutability": "view"
    },
    {
      "type": "event",
      "name": "DISPair",
      "inputs": [
        {
          "name": "sender",
          "type": "address",
          "indexed": false,
          "internalType": "address"
        },
        {
          "name": "interpreter",
          "type": "address",
          "indexed": false,
          "internalType": "address"
        },
        {
          "name": "store",
          "type": "address",
          "indexed": false,
          "internalType": "address"
        },
        {
          "name": "parser",
          "type": "address",
          "indexed": false,
          "internalType": "address"
        },
        {
          "name": "meta",
          "type": "bytes",
          "indexed": false,
          "internalType": "bytes"
        }
      ],
      "anonymous": false
    },
    {
      "type": "event",
      "name": "DeployedExpression",
      "inputs": [
        {
          "name": "sender",
          "type": "address",
          "indexed": false,
          "internalType": "address"
        },
        {
          "name": "interpreter",
          "type": "address",
          "indexed": false,
          "internalType": "contract IInterpreterV2"
        },
        {
          "name": "store",
          "type": "address",
          "indexed": false,
          "internalType": "contract IInterpreterStoreV2"
        },
        {
          "name": "expression",
          "type": "address",
          "indexed": false,
          "internalType": "address"
        },
        {
          "name": "io",
          "type": "bytes",
          "indexed": false,
          "internalType": "bytes"
        }
      ],
      "anonymous": false
    },
    {
      "type": "event",
      "name": "NewExpression",
      "inputs": [
        {
          "name": "sender",
          "type": "address",
          "indexed": false,
          "internalType": "address"
        },
        {
          "name": "bytecode",
          "type": "bytes",
          "indexed": false,
          "internalType": "bytes"
        },
        {
          "name": "constants",
          "type": "uint256[]",
          "indexed": false,
          "internalType": "uint256[]"
        }
      ],
      "anonymous": false
    },
    {
      "type": "error",
      "name": "BadDynamicLength",
      "inputs": [
        {
          "name": "dynamicLength",
          "type": "uint256",
          "internalType": "uint256"
        },
        {
          "name": "standardOpsLength",
          "type": "uint256",
          "internalType": "uint256"
        }
      ]
    },
    {
      "type": "error",
      "name": "BadOpInputsLength",
      "inputs": [
        {
          "name": "opIndex",
          "type": "uint256",
          "internalType": "uint256"
        },
        {
          "name": "calculatedInputs",
          "type": "uint256",
          "internalType": "uint256"
        },
        {
          "name": "bytecodeInputs",
          "type": "uint256",
          "internalType": "uint256"
        }
      ]
    },
    {
      "type": "error",
      "name": "BadOpOutputsLength",
      "inputs": [
        {
          "name": "opIndex",
          "type": "uint256",
          "internalType": "uint256"
        },
        {
          "name": "calculatedOutputs",
          "type": "uint256",
          "internalType": "uint256"
        },
        {
          "name": "bytecodeOutputs",
          "type": "uint256",
          "internalType": "uint256"
        }
      ]
    },
    {
      "type": "error",
      "name": "CallOutputsExceedSource",
      "inputs": [
        {
          "name": "sourceOutputs",
          "type": "uint256",
          "internalType": "uint256"
        },
        {
          "name": "outputs",
          "type": "uint256",
          "internalType": "uint256"
        }
      ]
    },
    {
      "type": "error",
      "name": "NotAnExternContract",
      "inputs": [
        {
          "name": "extern",
          "type": "address",
          "internalType": "address"
        }
      ]
    },
    {
      "type": "error",
      "name": "OutOfBoundsConstantRead",
      "inputs": [
        {
          "name": "opIndex",
          "type": "uint256",
          "internalType": "uint256"
        },
        {
          "name": "constantsLength",
          "type": "uint256",
          "internalType": "uint256"
        },
        {
          "name": "constantRead",
          "type": "uint256",
          "internalType": "uint256"
        }
      ]
    },
    {
      "type": "error",
      "name": "OutOfBoundsStackRead",
      "inputs": [
        {
          "name": "opIndex",
          "type": "uint256",
          "internalType": "uint256"
        },
        {
          "name": "stackTopIndex",
          "type": "uint256",
          "internalType": "uint256"
        },
        {
          "name": "stackRead",
          "type": "uint256",
          "internalType": "uint256"
        }
      ]
    },
    {
      "type": "error",
      "name": "SourceIndexOutOfBounds",
      "inputs": [
        {
          "name": "bytecode",
          "type": "bytes",
          "internalType": "bytes"
        },
        {
          "name": "sourceIndex",
          "type": "uint256",
          "internalType": "uint256"
        }
      ]
    },
    {
      "type": "error",
      "name": "StackAllocationMismatch",
      "inputs": [
        {
          "name": "stackMaxIndex",
          "type": "uint256",
          "internalType": "uint256"
        },
        {
          "name": "bytecodeAllocation",
          "type": "uint256",
          "internalType": "uint256"
        }
      ]
    },
    {
      "type": "error",
      "name": "StackOutputsMismatch",
      "inputs": [
        {
          "name": "stackIndex",
          "type": "uint256",
          "internalType": "uint256"
        },
        {
          "name": "bytecodeOutputs",
          "type": "uint256",
          "internalType": "uint256"
        }
      ]
    },
    {
      "type": "error",
      "name": "StackSizingsNotMonotonic",
      "inputs": [
        {
          "name": "bytecode",
          "type": "bytes",
          "internalType": "bytes"
        },
        {
          "name": "relativeOffset",
          "type": "uint256",
          "internalType": "uint256"
        }
      ]
    },
    {
      "type": "error",
      "name": "StackUnderflow",
      "inputs": [
        {
          "name": "opIndex",
          "type": "uint256",
          "internalType": "uint256"
        },
        {
          "name": "stackIndex",
          "type": "uint256",
          "internalType": "uint256"
        },
        {
          "name": "calculatedInputs",
          "type": "uint256",
          "internalType": "uint256"
        }
      ]
    },
    {
      "type": "error",
      "name": "StackUnderflowHighwater",
      "inputs": [
        {
          "name": "opIndex",
          "type": "uint256",
          "internalType": "uint256"
        },
        {
          "name": "stackIndex",
          "type": "uint256",
          "internalType": "uint256"
        },
        {
          "name": "stackHighwater",
          "type": "uint256",
          "internalType": "uint256"
        }
      ]
    },
    {
      "type": "error",
      "name": "TruncatedBitwiseEncoding",
      "inputs": [
        {
          "name": "startBit",
          "type": "uint256",
          "internalType": "uint256"
        },
        {
          "name": "length",
          "type": "uint256",
          "internalType": "uint256"
        }
      ]
    },
    {
      "type": "error",
      "name": "TruncatedHeader",
      "inputs": [
        {
          "name": "bytecode",
          "type": "bytes",
          "internalType": "bytes"
        }
      ]
    },
    {
      "type": "error",
      "name": "TruncatedHeaderOffsets",
      "inputs": [
        {
          "name": "bytecode",
          "type": "bytes",
          "internalType": "bytes"
        }
      ]
    },
    {
      "type": "error",
      "name": "TruncatedSource",
      "inputs": [
        {
          "name": "bytecode",
          "type": "bytes",
          "internalType": "bytes"
        }
      ]
    },
    {
      "type": "error",
      "name": "UnexpectedConstructionMetaHash",
      "inputs": [
        {
          "name": "expectedConstructionMetaHash",
          "type": "bytes32",
          "internalType": "bytes32"
        },
        {
          "name": "actualConstructionMetaHash",
          "type": "bytes32",
          "internalType": "bytes32"
        }
      ]
    },
    {
      "type": "error",
      "name": "UnexpectedInterpreterBytecodeHash",
      "inputs": [
        {
          "name": "expectedBytecodeHash",
          "type": "bytes32",
          "internalType": "bytes32"
        },
        {
          "name": "actualBytecodeHash",
          "type": "bytes32",
          "internalType": "bytes32"
        }
      ]
    },
    {
      "type": "error",
      "name": "UnexpectedParserBytecodeHash",
      "inputs": [
        {
          "name": "expectedBytecodeHash",
          "type": "bytes32",
          "internalType": "bytes32"
        },
        {
          "name": "actualBytecodeHash",
          "type": "bytes32",
          "internalType": "bytes32"
        }
      ]
    },
    {
      "type": "error",
      "name": "UnexpectedSources",
      "inputs": [
        {
          "name": "bytecode",
          "type": "bytes",
          "internalType": "bytes"
        }
      ]
    },
    {
      "type": "error",
      "name": "UnexpectedStoreBytecodeHash",
      "inputs": [
        {
          "name": "expectedBytecodeHash",
          "type": "bytes32",
          "internalType": "bytes32"
        },
        {
          "name": "actualBytecodeHash",
          "type": "bytes32",
          "internalType": "bytes32"
        }
      ]
    },
    {
      "type": "error",
      "name": "UnexpectedTrailingOffsetBytes",
      "inputs": [
        {
          "name": "bytecode",
          "type": "bytes",
          "internalType": "bytes"
        }
      ]
    },
    {
      "type": "error",
      "name": "UnsupportedBitwiseShiftAmount",
      "inputs": [
        {
          "name": "shiftAmount",
          "type": "uint256",
          "internalType": "uint256"
        }
      ]
    },
    {
      "type": "error",
      "name": "WriteError",
      "inputs": []
    },
    {
      "type": "error",
      "name": "ZeroLengthBitwiseEncoding",
      "inputs": []
    }
  ],
  "bytecode": {
    "object": "0x60e06040523480156200001157600080fd5b5060405162002103380380620021038339810160408190526200003491620003fe565b805160208083015160408401516001600160a01b0380851660805280831660a052811660c05260608501518051930192909220909190600080516020620020e38339815191528114620000b7576040516358e779d360e01b8152600080516020620020e38339815191526004820152602481018290526044015b60405180910390fd5b833f600080516020620020c383398151915281146200010257604051630fc2051760e11b8152600080516020620020c3833981519152600482015260248101829052604401620000ae565b833f7f2a4559222e2f3600b2d393715de8af57620439684463f745059c653bbfe3727f81146200016f576040516348616a9b60e01b81527f2a4559222e2f3600b2d393715de8af57620439684463f745059c653bbfe3727f600482015260248101829052604401620000ae565b833f600080516020620020a38339815191528114620001ba57604051630941d86960e21b8152600080516020620020a3833981519152600482015260248101829052604401620000ae565b7fb74b59464615509ba41ca66e536d6b2b154ee16c52dbcb77804915b9be416931338888888c60600151604051620001f795949392919062000534565b60405180910390a1731820a4b7618bde71dce8cdc73aab6c95905fad243b156200033957604080518082018252601581527f4945787072657373696f6e4465706c6f79657256330000000000000000000000602082015290516365ba36c160e01b8152731820a4b7618bde71dce8cdc73aab6c95905fad24916329965a1d91309184916365ba36c1916200028e916004016200057d565b602060405180830381865afa158015620002ac573d6000803e3d6000fd5b505050506040513d601f19601f82011682018060405250810190620002d2919062000599565b6040516001600160e01b031960e085901b1681526001600160a01b0390921660048301526024820152306044820152606401600060405180830381600087803b1580156200031f57600080fd5b505af115801562000334573d6000803e3d6000fd5b505050505b5050505050505050620005b3565b634e487b7160e01b600052604160045260246000fd5b604051608081016001600160401b038111828210171562000382576200038262000347565b60405290565b604051601f8201601f191681016001600160401b0381118282101715620003b357620003b362000347565b604052919050565b80516001600160a01b0381168114620003d357600080fd5b919050565b60005b83811015620003f5578181015183820152602001620003db565b50506000910152565b600060208083850312156200041257600080fd5b82516001600160401b03808211156200042a57600080fd5b90840190608082870312156200043f57600080fd5b620004496200035d565b6200045483620003bb565b815262000463848401620003bb565b848201526200047560408401620003bb565b60408201526060830151828111156200048d57600080fd5b80840193505086601f840112620004a357600080fd5b825182811115620004b857620004b862000347565b620004cc601f8201601f1916860162000388565b92508083528785828601011115620004e357600080fd5b620004f481868501878701620003d8565b50606081019190915295945050505050565b6000815180845262000520816020860160208601620003d8565b601f01601f19169290920160200192915050565b6001600160a01b038681168252858116602083015284811660408301528316606082015260a060808201819052600090620005729083018462000506565b979650505050505050565b60208152600062000592602083018462000506565b9392505050565b600060208284031215620005ac57600080fd5b5051919050565b60805160a05160c051611aa5620005fe600039600060dc015260008181610160015281816103b601526104140152600081816101870152818161039501526103f20152611aa56000f3fe608060405234801561001057600080fd5b506004361061007c5760003560e01c80638d6145911161005b5780638d61459114610123578063b7f1440314610138578063c19423bc1461015b578063f0cfdd371461018257600080fd5b80625f66131461008157806301ffc9a7146100b457806324376855146100d7575b600080fd5b6040517f1d8150daf9fa224a492519e40a518048a4eb6d0ca33aa885f129a7d5af99d6eb81526020015b60405180910390f35b6100c76100c23660046115ab565b6101a9565b60405190151581526020016100ab565b6100fe7f000000000000000000000000000000000000000000000000000000000000000081565b60405173ffffffffffffffffffffffffffffffffffffffff90911681526020016100ab565b61012b610242565b6040516100ab9190611651565b61014b610146366004611757565b610251565b6040516100ab949392919061182d565b6100fe7f000000000000000000000000000000000000000000000000000000000000000081565b6100fe7f000000000000000000000000000000000000000000000000000000000000000081565b60007fffffffff0000000000000000000000000000000000000000000000000000000082167fb7f1440300000000000000000000000000000000000000000000000000000000148061023c57507fffffffff0000000000000000000000000000000000000000000000000000000082167f01ffc9a700000000000000000000000000000000000000000000000000000000145b92915050565b606061024c610444565b905090565b60008060006060600061027d6040518060c0016040528060948152602001611a1160949139888861072e565b90507f7a1ee5e61e017b93877cfd8824938645c5f7d6f401b8c6d19cbe8f6cb9ec2cab3388886040516102b293929190611878565b60405180910390a1855187516000918291610355916020020160400160408051602c83017fffffffffffffffffffffffffffffffffffffffffffffffffffffffffffffffe01681019091527effff0000000000000000000000000000000000000000000000000000000000600190920160e81b919091167f61000080600c6000396000f3000000000000000000000000000000000000000017815290600d820190565b91509150610364818a8a610a90565b600061036f83610ad3565b90507f5c8bdfcfab3ec93dc2a3040de5d63b7dc99df02198f5def69ebf2d7eaffe2ee8337f00000000000000000000000000000000000000000000000000000000000000007f000000000000000000000000000000000000000000000000000000000000000084886040516103e89594939291906118e9565b60405180910390a17f00000000000000000000000000000000000000000000000000000000000000009a7f00000000000000000000000000000000000000000000000000000000000000009a5090985092965091945050505050565b60606115a16000604a905080915060006040518061096001604052808467ffffffffffffffff1667ffffffffffffffff168152602001610b418152602001610bbf8152602001610c248152602001610d9e8152602001610da88152602001610da88152602001610db28152602001610dbb8152602001610dd68152602001610e7c8152602001610e7c8152602001610ed88152602001610f528152602001610f5f8152602001610da88152602001610db28152602001610da88152602001610da88152602001610db28152602001610d9e8152602001610d9e8152602001610d9e8152602001610d9e8152602001610d9e8152602001610f698152602001610f8e8152602001610fa88152602001610da88152602001610f698152602001610da88152602001610da88152602001610f5f8152602001610db28152602001610da88152602001610da88152602001610f5f8152602001610da88152602001610db28152602001610fb28152602001610db28152602001610db28152602001610db28152602001610db28152602001610da88152602001610db28152602001610db28152602001610db28152602001610db28152602001610db28152602001610fb28152602001610da88152602001610da88152602001610da88152602001610db28152602001610db28152602001610db28152602001610da88152602001610db28152602001610fb28152602001610fb28152602001610fb28152602001610fb28152602001610fb28152602001610fb28152602001610fb28152602001610fb28152602001610fb28152602001610fb28152602001610fb28152602001610fb28152602001610fb28152602001610fb28152602001610db28152602001610fa881525090506060819050604a81511461071c5780516040517fc8b569010000000000000000000000000000000000000000000000000000000081526004810191909152602481018490526044015b60405180910390fd5b61072581610fcc565b94505050505090565b6060600061073b8461105d565b90506020850161074a8561107b565b8160020267ffffffffffffffff81111561076657610766611664565b6040519080825280601f01601f191660200182016040528015610790576020820181803683370190505b5092506020830160005b83811015610a85576000806107af898461129a565b9150915081845380600185015360028401935060006107cf8a848b6112bf565b9050600060186107df8c8761132b565b03905060006107ee8c8761135c565b600402820190505b808210156109cf5781516002601c82901a0289015162ffffff821691601d1a600f81169160049190911c9060f01c60008061082f898785565b915091508482146108835760808901516040517fddf5607100000000000000000000000000000000000000000000000000000000815260048101919091526024810183905260448101869052606401610713565b8381146108d35760808901516040517ffc8b560300000000000000000000000000000000000000000000000000000000815260048101919091526024810182905260448101859052606401610713565b885182111561092557608089015189516040517f2cab6bff0000000000000000000000000000000000000000000000000000000081526004810192909252602482015260448101839052606401610713565b8851829003808a5260408a0151111561098757608089015189516040808c015190517f1bc5ab0f000000000000000000000000000000000000000000000000000000008152600481019390935260248301919091526044820152606401610713565b88518101808a5260208a015110156109a157885160208a01525b60018111156109b257885160408a01525b5050506080860180516001019052505050600491909101906107f6565b6109d98c87611375565b836020015114610a2d5782602001516109f28d88611375565b6040517f4d9c18dc00000000000000000000000000000000000000000000000000000000815260048101929092526024820152604401610713565b82518414610a745782516040517f4689f0b3000000000000000000000000000000000000000000000000000000008152600481019190915260248101859052604401610713565b50506001909301925061079a915050565b505050509392505050565b80600182510160200281015b80821015610ab7578151855260209485019490910190610a9c565b5050610ace610ac38390565b84845160200161138e565b505050565b6000806000600d9050835160e81c61ffff168101846000f0915073ffffffffffffffffffffffffffffffffffffffff8216610b3a576040517f08d4abb600000000000000000000000000000000000000000000000000000000815260040160405180910390fd5b5092915050565b8151600090819061ffff8416908110610b9d57608085015185516040517feaa16f330000000000000000000000000000000000000000000000000000000081526004810192909252602482015260448101829052606401610713565b8460400151811115610bb157604085018190525b506000946001945092505050565b60008060008361ffff1690508460600151518110610bb15760808501516060860151516040517feb7894540000000000000000000000000000000000000000000000000000000081526004810192909252602482015260448101829052606401610713565b60008060008361ffff169050600085606001518281518110610c4857610c48611932565b60200260200101519050600080610c62839060a082901c90565b91509150610c90827f08b5f05c000000000000000000000000000000000000000000000000000000006113f4565b610cde576040517f23016c8900000000000000000000000000000000000000000000000000000000815273ffffffffffffffffffffffffffffffffffffffff83166004820152602401610713565b6040517fbeef26df00000000000000000000000000000000000000000000000000000000815260048101829052600f601089901c81166024830181905260148a901c90911660448301819052909173ffffffffffffffffffffffffffffffffffffffff85169063beef26df906064016040805180830381865afa158015610d69573d6000803e3d6000fd5b505050506040513d601f19601f82011682018060405250810190610d8d9190611961565b975097505050505050509250929050565b5060009160019150565b5060029160019150565b50600191829150565b600080610dc88484610dd6565b506001958695509350505050565b60008060ff80841690600885901c16808303610e1e576040517f46f0ca6900000000000000000000000000000000000000000000000000000000815260040160405180910390fd5b610100610e2b8284611985565b1115610e6d576040517f8abcdd3f0000000000000000000000000000000000000000000000000000000081526004810183905260248101829052604401610713565b50600295600195509350505050565b60008061ffff831660ff811180610e91575080155b15610ecb576040517fc1be16a100000000000000000000000000000000000000000000000000000000815260048101829052602401610713565b5060019485945092505050565b60008060008361ffff1690506000601485901c9050600080610efe8860a001518561129a565b9150915082811015610f46576040517fff1371080000000000000000000000000000000000000000000000000000000081526004810182905260248101849052604401610713565b50969095509350505050565b60101c600f169160019150565b5060039160019150565b600080600f601084901c1680610f80576001610f82565b805b95600195509350505050565b600080600f601084901c1660028111610f80576002610f82565b5060029160009150565b600080600f601084901c1660018111610f80576002610f82565b60606000825160020267ffffffffffffffff811115610fed57610fed611664565b6040519080825280601f01601f191660200182016040528015611017576020820181803683370190505b50905061ffff80196020850160208651028101600285015b818310156110515780518351861690851617815260209092019160020161102f565b50939695505050505050565b6000815160000361107057506000919050565b506020015160001a90565b60006110868261105d565b9050801561125857815160016002830201908111156110d357826040517f17f4bc5e0000000000000000000000000000000000000000000000000000000081526004016107139190611651565b82516020828501810191850101602160027fffffffffffffffffffffffffffffffffffffffffffffffffffffffffffffffff860102860181019086015b80821061121457815160f01c848101600481018581111561115e57896040517e39ba560000000000000000000000000000000000000000000000000000000081526004016107139190611651565b8151600081901a90600181901a90600281901a9060031a8082118061118257508281115b156111bd578d876040517feaf45f4f0000000000000000000000000000000000000000000000000000000081526004016107139291906119bf565b505050600481028201878114611201578b6040517ffbb8027a0000000000000000000000000000000000000000000000000000000081526004016107139190611651565b8397506002870396505050505050611110565b83831461124f57866040517fde67b29a0000000000000000000000000000000000000000000000000000000081526004016107139190611651565b50505050505050565b60018251111561129657816040517fd013da5d0000000000000000000000000000000000000000000000000000000081526004016107139190611651565b5050565b60008060006112a9858561132b565b51600281901a9660039190911a95509350505050565b6112f86040518060c001604052806000815260200160008152602001600081526020016060815260200160008152602001606081525090565b506040805160c081018252838152602081018490529081019290925260608201526000608082015260a081019190915290565b6000806113378461105d565b6002026001019050600061134b8585611417565b949091019093016020019392505050565b600080611369848461132b565b5160001a949350505050565b600080611382848461132b565b5160011a949350505050565b6020810680820384015b808510156113b3578451845260209485019490930192611398565b5080156113ee577fffffffffffffffffffffffffffffffffffffffffffffffffffffffffffffffff600882021c808451168119865116178452505b50505050565b60006113ff8361146e565b8015611410575061141083836114d2565b9392505050565b60006114228361105d565b821061145e5782826040517f30489add0000000000000000000000000000000000000000000000000000000081526004016107139291906119bf565b50600202016003015161ffff1690565b600061149a827f01ffc9a7000000000000000000000000000000000000000000000000000000006114d2565b801561023c57506114cb827fffffffff000000000000000000000000000000000000000000000000000000006114d2565b1592915050565b604080517fffffffff000000000000000000000000000000000000000000000000000000008316602480830191909152825180830390910181526044909101909152602080820180517bffffffffffffffffffffffffffffffffffffffffffffffffffffffff167f01ffc9a700000000000000000000000000000000000000000000000000000000178152825160009392849283928392918391908a617530fa92503d9150600051905082801561158a575060208210155b80156115965750600081115b979650505050505050565b6115a96119e1565b565b6000602082840312156115bd57600080fd5b81357fffffffff000000000000000000000000000000000000000000000000000000008116811461141057600080fd5b6000815180845260005b81811015611613576020818501810151868301820152016115f7565b5060006020828601015260207fffffffffffffffffffffffffffffffffffffffffffffffffffffffffffffffe0601f83011685010191505092915050565b60208152600061141060208301846115ed565b7f4e487b7100000000000000000000000000000000000000000000000000000000600052604160045260246000fd5b604051601f82017fffffffffffffffffffffffffffffffffffffffffffffffffffffffffffffffe016810167ffffffffffffffff811182821017156116da576116da611664565b604052919050565b600082601f8301126116f357600080fd5b8135602067ffffffffffffffff82111561170f5761170f611664565b8160051b61171e828201611693565b928352848101820192828101908785111561173857600080fd5b83870192505b848310156115965782358252918301919083019061173e565b6000806040838503121561176a57600080fd5b823567ffffffffffffffff8082111561178257600080fd5b818501915085601f83011261179657600080fd5b81356020828211156117aa576117aa611664565b6117da817fffffffffffffffffffffffffffffffffffffffffffffffffffffffffffffffe0601f85011601611693565b82815288828487010111156117ee57600080fd5b8282860183830137600092810182019290925290945085013591508082111561181657600080fd5b50611823858286016116e2565b9150509250929050565b600073ffffffffffffffffffffffffffffffffffffffff808716835280861660208401528085166040840152506080606083015261186e60808301846115ed565b9695505050505050565b73ffffffffffffffffffffffffffffffffffffffff84168152600060206060818401526118a860608401866115ed565b838103604085015284518082528286019183019060005b818110156118db578351835292840192918401916001016118bf565b509098975050505050505050565b600073ffffffffffffffffffffffffffffffffffffffff80881683528087166020840152808616604084015280851660608401525060a0608083015261159660a08301846115ed565b7f4e487b7100000000000000000000000000000000000000000000000000000000600052603260045260246000fd5b6000806040838503121561197457600080fd5b505080516020909101519092909150565b8082018082111561023c577f4e487b7100000000000000000000000000000000000000000000000000000000600052601160045260246000fd5b6040815260006119d260408301856115ed565b90508260208301529392505050565b7f4e487b7100000000000000000000000000000000000000000000000000000000600052605160045260246000fdfe0b410bbf0c240d9e0da80da80db20dbb0dd60e7c0e7c0ed80f520f5f0da80db20da80da80db20d9e0d9e0d9e0d9e0d9e0f690f8e0fa80da80f690da80da80f5f0db20da80da80f5f0da80db20fb20db20db20db20db20da80db20db20db20db20db20fb20da80da80da80db20db20db20da80db20fb20fb20fb20fb20fb20fb20fb20fb20fb20fb20fb20fb20fb20fb20db20fa86ebdf4615e027e4d771f6c37dc02d32adee31504069a05227054ec8d4844fe7ebdc3b8364573bdaeb6b287500497797ccf53be54baaac4fb7ba52941815e5e701d8150daf9fa224a492519e40a518048a4eb6d0ca33aa885f129a7d5af99d6eb",
    "linkReferences": {}
  },
  "methodIdentifiers": {
    "deployExpression2(bytes,uint256[])": "b7f14403",
    "expectedConstructionMetaHash()": "005f6613",
    "iInterpreter()": "f0cfdd37",
    "iParser()": "24376855",
    "iStore()": "c19423bc",
    "integrityFunctionPointers()": "8d614591",
    "supportsInterface(bytes4)": "01ffc9a7"
  },
  "id": 107
}